{
  "contractName": "Ownable",
  "abi": [
    {
      "inputs": [],
      "stateMutability": "nonpayable",
      "type": "constructor"
    },
    {
      "anonymous": false,
      "inputs": [
        {
          "indexed": true,
          "internalType": "address",
          "name": "previousOwner",
          "type": "address"
        },
        {
          "indexed": true,
          "internalType": "address",
          "name": "newOwner",
          "type": "address"
        }
      ],
      "name": "OwnershipTransferred",
      "type": "event"
    },
    {
      "inputs": [],
      "name": "_owner",
      "outputs": [
        {
          "internalType": "address",
          "name": "",
          "type": "address"
        }
      ],
      "stateMutability": "view",
      "type": "function"
    },
    {
      "inputs": [],
      "name": "owner",
      "outputs": [
        {
          "internalType": "address",
          "name": "",
          "type": "address"
        }
      ],
      "stateMutability": "view",
      "type": "function"
    },
    {
      "inputs": [],
      "name": "renounceOwnership",
      "outputs": [],
      "stateMutability": "nonpayable",
      "type": "function"
    },
    {
      "inputs": [
        {
          "internalType": "address",
          "name": "newOwner",
          "type": "address"
        }
      ],
      "name": "transferOwnership",
      "outputs": [],
      "stateMutability": "nonpayable",
      "type": "function"
    }
  ],
  "bytecode": "0x608060405234801561001057600080fd5b50336000806101000a81548173ffffffffffffffffffffffffffffffffffffffff021916908373ffffffffffffffffffffffffffffffffffffffff1602179055503373ffffffffffffffffffffffffffffffffffffffff16600073ffffffffffffffffffffffffffffffffffffffff167f8be0079c531659141344cd1fd0a4f28419497f9722a3daafe3b4186f6b6457e060405160405180910390a3610564806100bb6000396000f3fe608060405234801561001057600080fd5b506004361061004c5760003560e01c8063715018a6146100515780638da5cb5b1461005b578063b2bdfa7b146100a5578063f2fde38b146100ef575b600080fd5b610059610133565b005b6100636102b4565b604051808273ffffffffffffffffffffffffffffffffffffffff1673ffffffffffffffffffffffffffffffffffffffff16815260200191505060405180910390f35b6100ad6102dd565b604051808273ffffffffffffffffffffffffffffffffffffffff1673ffffffffffffffffffffffffffffffffffffffff16815260200191505060405180910390f35b6101316004803603602081101561010557600080fd5b81019080803573ffffffffffffffffffffffffffffffffffffffff169060200190929190505050610302565b005b3373ffffffffffffffffffffffffffffffffffffffff166000809054906101000a900473ffffffffffffffffffffffffffffffffffffffff1673ffffffffffffffffffffffffffffffffffffffff16146101f5576040517f08c379a00000000000000000000000000000000000000000000000000000000081526004018080602001828103825260208152602001807f4f776e61626c653a2063616c6c6572206973206e6f7420746865206f776e657281525060200191505060405180910390fd5b600073ffffffffffffffffffffffffffffffffffffffff166000809054906101000a900473ffffffffffffffffffffffffffffffffffffffff1673ffffffffffffffffffffffffffffffffffffffff167f8be0079c531659141344cd1fd0a4f28419497f9722a3daafe3b4186f6b6457e060405160405180910390a360008060006101000a81548173ffffffffffffffffffffffffffffffffffffffff021916908373ffffffffffffffffffffffffffffffffffffffff160217905550565b60008060009054906101000a900473ffffffffffffffffffffffffffffffffffffffff16905090565b6000809054906101000a900473ffffffffffffffffffffffffffffffffffffffff1681565b3373ffffffffffffffffffffffffffffffffffffffff166000809054906101000a900473ffffffffffffffffffffffffffffffffffffffff1673ffffffffffffffffffffffffffffffffffffffff16146103c4576040517f08c379a00000000000000000000000000000000000000000000000000000000081526004018080602001828103825260208152602001807f4f776e61626c653a2063616c6c6572206973206e6f7420746865206f776e657281525060200191505060405180910390fd5b600073ffffffffffffffffffffffffffffffffffffffff168173ffffffffffffffffffffffffffffffffffffffff16141561044a576040517f08c379a00000000000000000000000000000000000000000000000000000000081526004018080602001828103825260268152602001806105096026913960400191505060405180910390fd5b8073ffffffffffffffffffffffffffffffffffffffff166000809054906101000a900473ffffffffffffffffffffffffffffffffffffffff1673ffffffffffffffffffffffffffffffffffffffff167f8be0079c531659141344cd1fd0a4f28419497f9722a3daafe3b4186f6b6457e060405160405180910390a3806000806101000a81548173ffffffffffffffffffffffffffffffffffffffff021916908373ffffffffffffffffffffffffffffffffffffffff1602179055505056fe4f776e61626c653a206e6577206f776e657220697320746865207a65726f2061646472657373a2646970667358221220ee9c921b2bcd23e9110ad5ee467d1769f7c9b7e5474e0767eb43ec02743973f164736f6c63430006000033",
  "source": "pragma solidity 0.6.0;\n\nlibrary SafeMath {\n  /**\n  * @dev Multiplies two unsigned integers, reverts on overflow.\n  */\n  function mul(uint256 a, uint256 b) internal pure returns (uint256) {\n    // Gas optimization: this is cheaper than requiring 'a' not being zero, but the\n    // benefit is lost if 'b' is also tested.\n    // See: https://github.com/OpenZeppelin/openzeppelin-solidity/pull/522\n    if (a == 0) {\n        return 0;\n    }\n\n    uint256 c = a * b;\n    require(c / a == b);\n\n    return c;\n  }\n\n  /**\n  * @dev Integer division of two unsigned integers truncating the quotient, reverts on division by zero.\n  */\n  function div(uint256 a, uint256 b) internal pure returns (uint256) {\n    // Solidity only automatically asserts when dividing by 0\n    require(b > 0);\n    uint256 c = a / b;\n    // assert(a == b * c + a % b); // There is no case in which this doesn't hold\n\n    return c;\n  }\n\n  /**\n  * @dev Subtracts two unsigned integers, reverts on overflow (i.e. if subtrahend is greater than minuend).\n  */\n  function sub(uint256 a, uint256 b) internal pure returns (uint256) {\n    require(b <= a);\n    uint256 c = a - b;\n\n    return c;\n  }\n\n  /**\n  * @dev Adds two unsigned integers, reverts on overflow.\n  */\n  function add(uint256 a, uint256 b) internal pure returns (uint256) {\n    uint256 c = a + b;\n    require(c >= a);\n\n    return c;\n  }\n\n  /**\n  * @dev Divides two unsigned integers and returns the remainder (unsigned integer modulo),\n  * reverts when dividing by zero.\n  */\n  function mod(uint256 a, uint256 b) internal pure returns (uint256) {\n    require(b != 0);\n    return a % b;\n  }\n}\n\ncontract Ownable {\n  address public _owner;\n\n  event OwnershipTransferred(address indexed previousOwner, address indexed newOwner);\n\n  constructor () public {\n    _owner = msg.sender;\n    emit OwnershipTransferred(address(0), msg.sender);\n  }\n\n  function owner() public view returns (address) {\n    return _owner;\n  }\n\n  modifier onlyOwner() {\n    require(_owner == msg.sender, \"Ownable: caller is not the owner\");\n    _;\n  }\n\n  function renounceOwnership() public virtual onlyOwner {\n    emit OwnershipTransferred(_owner, address(0));\n    _owner = address(0);\n  }\n\n  function transferOwnership(address newOwner) public virtual onlyOwner {\n    require(newOwner != address(0), \"Ownable: new owner is the zero address\");\n    emit OwnershipTransferred(_owner, newOwner);\n    _owner = newOwner;\n  }\n}\n\ncontract YFMSToken is Ownable {\n  using SafeMath for uint256;\n\n  // standard ERC20 variables. \n  string public constant name = \"YF Moonshot\";\n  string public constant symbol = \"YFMS\";\n  uint256 public constant decimals = 18;\n  // the supply will not exceed 35,000 YFMS\n  uint256 private constant _maximumSupply = 35000 * 10 ** decimals;\n  uint256 private constant _maximumPresaleBurnAmount = 10000 * 10 ** decimals;\n  uint256 public _presaleBurnTotal = 0;\n  uint256 public _stakingBurnTotal = 0;\n  // owner of the contract\n  uint256 public _totalSupply;\n\n  // events\n  event Transfer(address indexed from, address indexed to, uint256 value);\n  event Approval(address indexed owner, address indexed spender, uint256 value);\n\n  // mappings\n  mapping(address => uint256) public _balanceOf;\n  mapping(address => mapping(address => uint256)) public allowance;\n\n  constructor() public override {\n    // transfer the entire supply into the address of the Contract creator.\n    _owner = msg.sender;\n    _totalSupply = _maximumSupply;\n    _balanceOf[msg.sender] = _maximumSupply;\n    emit Transfer(address(0x0), msg.sender, _maximumSupply);\n  }\n\n  function totalSupply () public view returns (uint256) {\n    return _totalSupply; \n  }\n\n  function balanceOf (address who) public view returns (uint256) {\n    return _balanceOf[who];\n  }\n\n  // ensure the address is valid.\n  function _transfer(address _from, address _to, uint256 _value) internal {\n    _balanceOf[_from] = _balanceOf[_from].sub(_value);\n    _balanceOf[_to] = _balanceOf[_to].add(_value);\n    emit Transfer(_from, _to, _value);\n  }\n\n  // send tokens\n  function transfer(address _to, uint256 _value) public returns (bool success) {\n    require(_balanceOf[msg.sender] >= _value);\n    _transfer(msg.sender, _to, _value);\n    return true;\n  }\n\n  // handles presale burn + staking burn.\n  function burn (uint256 _burnAmount, bool _presaleBurn) public onlyOwner returns (bool success) {\n    if (_presaleBurn) {\n      require(_presaleBurnTotal.add(_burnAmount) <= _maximumPresaleBurnAmount);\n      _presaleBurnTotal = _presaleBurnTotal.add(_burnAmount);\n      _transfer(_owner, address(0), _burnAmount);\n      _totalSupply = _totalSupply.sub(_burnAmount);\n    } else {\n      _transfer(_owner, address(0), _burnAmount);\n      _totalSupply = _totalSupply.sub(_burnAmount);\n    }\n    return true;\n  }\n\n  // approve tokens\n  function approve(address _spender, uint256 _value) public returns (bool success) {\n    require(_spender != address(0));\n    allowance[msg.sender][_spender] = _value;\n    emit Approval(msg.sender, _spender, _value);\n    return true;\n  }\n\n  // transfer from\n  function transferFrom(address _from, address _to, uint256 _value) public returns (bool success) {\n    require(_value <= _balanceOf[_from]);\n    require(_value <= allowance[_from][msg.sender]);\n    allowance[_from][msg.sender] = allowance[_from][msg.sender].sub(_value);\n    _transfer(_from, _to, _value);\n    return true;\n  }\n}\n",
  "sourcePath": "/home/spyder/Programming/Projects/YFMOONSHOT-TOKEN-CONTRACT/contracts/YFMSToken.sol",
  "compiler": {
    "name": "solc",
    "version": "0.6.0+commit.26b70077.Emscripten.clang"
  },
  "schemaVersion": "3.2.3",
  "updatedAt": "2020-09-12T19:07:35.144Z",
  "devdoc": {
    "methods": {}
  },
  "userdoc": {
    "methods": {}
  }
}