{
  "contractName": "YFMSTokenSale",
  "abi": [
    {
      "inputs": [
        {
          "internalType": "address",
          "name": "_wallet",
          "type": "address"
        }
      ],
      "stateMutability": "nonpayable",
      "type": "constructor"
    },
    {
      "inputs": [],
      "name": "YFMSToken",
      "outputs": [
        {
          "internalType": "contract ERC20",
          "name": "",
          "type": "address"
        }
      ],
      "stateMutability": "view",
      "type": "function",
      "constant": true
    },
    {
      "inputs": [],
      "name": "collectedETH",
      "outputs": [
        {
          "internalType": "uint256",
          "name": "",
          "type": "uint256"
        }
      ],
      "stateMutability": "view",
      "type": "function",
      "constant": true
    },
    {
      "inputs": [],
      "name": "owner",
      "outputs": [
        {
          "internalType": "address payable",
          "name": "",
          "type": "address"
        }
      ],
      "stateMutability": "view",
      "type": "function",
      "constant": true
    },
    {
      "inputs": [],
      "name": "softCapMet",
      "outputs": [
        {
          "internalType": "bool",
          "name": "",
          "type": "bool"
        }
      ],
      "stateMutability": "view",
      "type": "function",
      "constant": true
    },
    {
      "inputs": [],
      "name": "startDate",
      "outputs": [
        {
          "internalType": "uint256",
          "name": "",
          "type": "uint256"
        }
      ],
      "stateMutability": "view",
      "type": "function",
      "constant": true
    },
    {
      "inputs": [],
      "name": "totalSold",
      "outputs": [
        {
          "internalType": "uint256",
          "name": "",
          "type": "uint256"
        }
      ],
      "stateMutability": "view",
      "type": "function",
      "constant": true
    },
    {
      "stateMutability": "payable",
      "type": "receive",
      "payable": true
    },
    {
      "inputs": [],
      "name": "contribute",
      "outputs": [],
      "stateMutability": "payable",
      "type": "function",
      "payable": true
    },
    {
      "inputs": [
        {
          "internalType": "address",
          "name": "from",
          "type": "address"
        }
      ],
      "name": "numberOfContributions",
      "outputs": [
        {
          "internalType": "uint256",
          "name": "",
          "type": "uint256"
        }
      ],
      "stateMutability": "view",
      "type": "function",
      "constant": true
    },
    {
      "inputs": [
        {
          "internalType": "address",
          "name": "from",
          "type": "address"
        }
      ],
      "name": "contributions",
      "outputs": [
        {
          "internalType": "uint256",
          "name": "",
          "type": "uint256"
        }
      ],
      "stateMutability": "view",
      "type": "function",
      "constant": true
    },
    {
      "inputs": [
        {
          "internalType": "address",
          "name": "from",
          "type": "address"
        }
      ],
      "name": "averagePurchaseRate",
      "outputs": [
        {
          "internalType": "uint256",
          "name": "",
          "type": "uint256"
        }
      ],
      "stateMutability": "view",
      "type": "function",
      "constant": true
    },
    {
      "inputs": [
        {
          "internalType": "address payable",
          "name": "from",
          "type": "address"
        }
      ],
      "name": "buyBackETH",
      "outputs": [],
      "stateMutability": "nonpayable",
      "type": "function"
    },
    {
      "inputs": [],
      "name": "withdrawETH",
      "outputs": [],
      "stateMutability": "nonpayable",
      "type": "function"
    },
    {
      "inputs": [],
      "name": "withdrawYFMS",
      "outputs": [],
      "stateMutability": "nonpayable",
      "type": "function"
    },
    {
      "inputs": [],
      "name": "startSale",
      "outputs": [],
      "stateMutability": "nonpayable",
      "type": "function"
    },
    {
      "inputs": [],
      "name": "availableYFMS",
      "outputs": [
        {
          "internalType": "uint256",
          "name": "",
          "type": "uint256"
        }
      ],
      "stateMutability": "view",
      "type": "function",
      "constant": true
    }
  ],
  "bytecode": "0x608060405234801561001057600080fd5b506040516122623803806122628339818101604052602081101561003357600080fd5b810190808051906020019092919050505033600260006101000a81548173ffffffffffffffffffffffffffffffffffffffff021916908373ffffffffffffffffffffffffffffffffffffffff160217905550806001806101000a81548173ffffffffffffffffffffffffffffffffffffffff021916908373ffffffffffffffffffffffffffffffffffffffff1602179055505061218d806100d56000396000f3fe6080604052600436106100ec5760003560e01c8063b66a0e5d1161008a578063dd1da86211610059578063dd1da86214610d70578063df69292914610d9f578063dfccdef514610e04578063e086e5ec14610e2f57610ae9565b8063b66a0e5d14610cd3578063b6ce753114610cea578063be3853c914610d15578063d7bb99ba14610d6657610ae9565b8063756e5db7116100c6578063756e5db714610bd55780638cf59dc814610bec5780638da5cb5b14610c515780639106d7ba14610ca857610ae9565b8063021e63c114610aee5780630b97bc8614610b4557806342e94c9014610b7057610ae9565b36610ae957600060045411801561011a575062093a8061011760045442610e4690919063ffffffff16565b11155b61012357600080fd5b60006001809054906101000a900473ffffffffffffffffffffffffffffffffffffffff1673ffffffffffffffffffffffffffffffffffffffff166370a08231306040518263ffffffff1660e01b8152600401808273ffffffffffffffffffffffffffffffffffffffff1673ffffffffffffffffffffffffffffffffffffffff16815260200191505060206040518083038186803b1580156101c357600080fd5b505afa1580156101d7573d6000803e3d6000fd5b505050506040513d60208110156101ed57600080fd5b81019080805190602001909291905050501161020857600080fd5b67016345785d8a0000341015801561022957506802b5e3af16b18800003411155b61023257600080fd5b600080600690506000600b90506000600590506000600990506000600490506201518061026a60045442610e4690919063ffffffff16565b1161033257610283600634610e6690919063ffffffff16565b95506102ea61029c600a87610e6690919063ffffffff16565b600660003373ffffffffffffffffffffffffffffffffffffffff1673ffffffffffffffffffffffffffffffffffffffff16815260200190815260200160002054610ea090919063ffffffff16565b600660003373ffffffffffffffffffffffffffffffffffffffff1673ffffffffffffffffffffffffffffffffffffffff1681526020019081526020016000208190555061076f565b6201518061034b60045442610e4690919063ffffffff16565b11801561036f57506202a30061036c60045442610e4690919063ffffffff16565b11155b1561045d5761039b600261038d600b34610e6690919063ffffffff16565b610ebf90919063ffffffff16565b95506104156103c760026103b9600a88610e6690919063ffffffff16565b610ebf90919063ffffffff16565b600660003373ffffffffffffffffffffffffffffffffffffffff1673ffffffffffffffffffffffffffffffffffffffff16815260200190815260200160002054610ea090919063ffffffff16565b600660003373ffffffffffffffffffffffffffffffffffffffff1673ffffffffffffffffffffffffffffffffffffffff1681526020019081526020016000208190555061076e565b6202a30061047660045442610e4690919063ffffffff16565b11801561049a57506203f48061049760045442610e4690919063ffffffff16565b11155b15610562576104b3600534610e6690919063ffffffff16565b955061051a6104cc600a85610e6690919063ffffffff16565b600660003373ffffffffffffffffffffffffffffffffffffffff1673ffffffffffffffffffffffffffffffffffffffff16815260200190815260200160002054610ea090919063ffffffff16565b600660003373ffffffffffffffffffffffffffffffffffffffff1673ffffffffffffffffffffffffffffffffffffffff1681526020019081526020016000208190555061076d565b6203f48061057b60045442610e4690919063ffffffff16565b11801561059f57506205460061059c60045442610e4690919063ffffffff16565b11155b1561068d576105cb60026105bd600934610e6690919063ffffffff16565b610ebf90919063ffffffff16565b95506106456105f760026105e9600a86610e6690919063ffffffff16565b610ebf90919063ffffffff16565b600660003373ffffffffffffffffffffffffffffffffffffffff1673ffffffffffffffffffffffffffffffffffffffff16815260200190815260200160002054610ea090919063ffffffff16565b600660003373ffffffffffffffffffffffffffffffffffffffff1673ffffffffffffffffffffffffffffffffffffffff1681526020019081526020016000208190555061076c565b620546006106a660045442610e4690919063ffffffff16565b111561076b576106c0600434610e6690919063ffffffff16565b95506107276106d9600a83610e6690919063ffffffff16565b600660003373ffffffffffffffffffffffffffffffffffffffff1673ffffffffffffffffffffffffffffffffffffffff16815260200190815260200160002054610ea090919063ffffffff16565b600660003373ffffffffffffffffffffffffffffffffffffffff1673ffffffffffffffffffffffffffffffffffffffff168152602001908152602001600020819055505b5b5b5b5b6001809054906101000a900473ffffffffffffffffffffffffffffffffffffffff1673ffffffffffffffffffffffffffffffffffffffff166370a08231306040518263ffffffff1660e01b8152600401808273ffffffffffffffffffffffffffffffffffffffff1673ffffffffffffffffffffffffffffffffffffffff16815260200191505060206040518083038186803b15801561080d57600080fd5b505afa158015610821573d6000803e3d6000fd5b505050506040513d602081101561083757600080fd5b810190808051906020019092919050505086111561085457600080fd5b61086986600054610ea090919063ffffffff16565b60008190555061088434600354610ea090919063ffffffff16565b6003819055506001809054906101000a900473ffffffffffffffffffffffffffffffffffffffff1673ffffffffffffffffffffffffffffffffffffffff1663a9059cbb33886040518363ffffffff1660e01b8152600401808373ffffffffffffffffffffffffffffffffffffffff1673ffffffffffffffffffffffffffffffffffffffff16815260200182815260200192505050602060405180830381600087803b15801561093257600080fd5b505af1158015610946573d6000803e3d6000fd5b505050506040513d602081101561095c57600080fd5b8101908080519060200190929190505050506109c086600560003373ffffffffffffffffffffffffffffffffffffffff1673ffffffffffffffffffffffffffffffffffffffff16815260200190815260200160002054610ea090919063ffffffff16565b600560003373ffffffffffffffffffffffffffffffffffffffff1673ffffffffffffffffffffffffffffffffffffffff16815260200190815260200160002081905550610a566001600760003373ffffffffffffffffffffffffffffffffffffffff1673ffffffffffffffffffffffffffffffffffffffff16815260200190815260200160002054610ea090919063ffffffff16565b600760003373ffffffffffffffffffffffffffffffffffffffff1673ffffffffffffffffffffffffffffffffffffffff16815260200190815260200160002081905550600160009054906101000a900460ff16158015610ac15750680d8d726b7177a8000060035410155b15610ae15760018060006101000a81548160ff0219169083151502179055505b505050505050005b600080fd5b348015610afa57600080fd5b50610b03610ee5565b604051808273ffffffffffffffffffffffffffffffffffffffff1673ffffffffffffffffffffffffffffffffffffffff16815260200191505060405180910390f35b348015610b5157600080fd5b50610b5a610f0a565b6040518082815260200191505060405180910390f35b348015610b7c57600080fd5b50610bbf60048036036020811015610b9357600080fd5b81019080803573ffffffffffffffffffffffffffffffffffffffff169060200190929190505050610f10565b6040518082815260200191505060405180910390f35b348015610be157600080fd5b50610bea610f59565b005b348015610bf857600080fd5b50610c3b60048036036020811015610c0f57600080fd5b81019080803573ffffffffffffffffffffffffffffffffffffffff169060200190929190505050611277565b6040518082815260200191505060405180910390f35b348015610c5d57600080fd5b50610c666112c0565b604051808273ffffffffffffffffffffffffffffffffffffffff1673ffffffffffffffffffffffffffffffffffffffff16815260200191505060405180910390f35b348015610cb457600080fd5b50610cbd6112e6565b6040518082815260200191505060405180910390f35b348015610cdf57600080fd5b50610ce86112ec565b005b348015610cf657600080fd5b50610cff61135d565b6040518082815260200191505060405180910390f35b348015610d2157600080fd5b50610d6460048036036020811015610d3857600080fd5b81019080803573ffffffffffffffffffffffffffffffffffffffff16906020019092919050505061143d565b005b610d6e6115fd565b005b348015610d7c57600080fd5b50610d85611ff5565b604051808215151515815260200191505060405180910390f35b348015610dab57600080fd5b50610dee60048036036020811015610dc257600080fd5b81019080803573ffffffffffffffffffffffffffffffffffffffff169060200190929190505050612008565b6040518082815260200191505060405180910390f35b348015610e1057600080fd5b50610e19612051565b6040518082815260200191505060405180910390f35b348015610e3b57600080fd5b50610e44612057565b005b600082821115610e5557600080fd5b600082840390508091505092915050565b600080831415610e795760009050610e9a565b6000828402905082848281610e8a57fe5b0414610e9557600080fd5b809150505b92915050565b600080828401905083811015610eb557600080fd5b8091505092915050565b6000808211610ecd57600080fd5b6000828481610ed857fe5b0490508091505092915050565b6001809054906101000a900473ffffffffffffffffffffffffffffffffffffffff1681565b60045481565b6000600560008373ffffffffffffffffffffffffffffffffffffffff1673ffffffffffffffffffffffffffffffffffffffff168152602001908152602001600020549050919050565b600260009054906101000a900473ffffffffffffffffffffffffffffffffffffffff1673ffffffffffffffffffffffffffffffffffffffff163373ffffffffffffffffffffffffffffffffffffffff1614801561108e575060006001809054906101000a900473ffffffffffffffffffffffffffffffffffffffff1673ffffffffffffffffffffffffffffffffffffffff166370a08231306040518263ffffffff1660e01b8152600401808273ffffffffffffffffffffffffffffffffffffffff1673ffffffffffffffffffffffffffffffffffffffff16815260200191505060206040518083038186803b15801561105157600080fd5b505afa158015611065573d6000803e3d6000fd5b505050506040513d602081101561107b57600080fd5b8101908080519060200190929190505050115b61109757600080fd5b6001809054906101000a900473ffffffffffffffffffffffffffffffffffffffff1673ffffffffffffffffffffffffffffffffffffffff1663a9059cbb600260009054906101000a900473ffffffffffffffffffffffffffffffffffffffff166001809054906101000a900473ffffffffffffffffffffffffffffffffffffffff1673ffffffffffffffffffffffffffffffffffffffff166370a08231306040518263ffffffff1660e01b8152600401808273ffffffffffffffffffffffffffffffffffffffff1673ffffffffffffffffffffffffffffffffffffffff16815260200191505060206040518083038186803b15801561119557600080fd5b505afa1580156111a9573d6000803e3d6000fd5b505050506040513d60208110156111bf57600080fd5b81019080805190602001909291905050506040518363ffffffff1660e01b8152600401808373ffffffffffffffffffffffffffffffffffffffff1673ffffffffffffffffffffffffffffffffffffffff16815260200182815260200192505050602060405180830381600087803b15801561123957600080fd5b505af115801561124d573d6000803e3d6000fd5b505050506040513d602081101561126357600080fd5b810190808051906020019092919050505050565b6000600660008373ffffffffffffffffffffffffffffffffffffffff1673ffffffffffffffffffffffffffffffffffffffff168152602001908152602001600020549050919050565b600260009054906101000a900473ffffffffffffffffffffffffffffffffffffffff1681565b60005481565b600260009054906101000a900473ffffffffffffffffffffffffffffffffffffffff1673ffffffffffffffffffffffffffffffffffffffff163373ffffffffffffffffffffffffffffffffffffffff1614801561134b57506000600454145b61135457600080fd5b42600481905550565b60006001809054906101000a900473ffffffffffffffffffffffffffffffffffffffff1673ffffffffffffffffffffffffffffffffffffffff166370a08231306040518263ffffffff1660e01b8152600401808273ffffffffffffffffffffffffffffffffffffffff1673ffffffffffffffffffffffffffffffffffffffff16815260200191505060206040518083038186803b1580156113fd57600080fd5b505afa158015611411573d6000803e3d6000fd5b505050506040513d602081101561142757600080fd5b8101908080519060200190929190505050905090565b62093a8061145660045442610e4690919063ffffffff16565b1180156114705750600160009054906101000a900460ff16155b61147957600080fd5b6000600560008373ffffffffffffffffffffffffffffffffffffffff1673ffffffffffffffffffffffffffffffffffffffff16815260200190815260200160002054116114c557600080fd5b600061151a600a600660008573ffffffffffffffffffffffffffffffffffffffff1673ffffffffffffffffffffffffffffffffffffffff16815260200190815260200160002054610ebf90919063ffffffff16565b90508173ffffffffffffffffffffffffffffffffffffffff166108fc61158883600560008773ffffffffffffffffffffffffffffffffffffffff1673ffffffffffffffffffffffffffffffffffffffff16815260200190815260200160002054610ebf90919063ffffffff16565b9081150290604051600060405180830381858888f193505050501580156115b3573d6000803e3d6000fd5b506000600560008473ffffffffffffffffffffffffffffffffffffffff1673ffffffffffffffffffffffffffffffffffffffff168152602001908152602001600020819055505050565b6000600454118015611626575062093a8061162360045442610e4690919063ffffffff16565b11155b61162f57600080fd5b60006001809054906101000a900473ffffffffffffffffffffffffffffffffffffffff1673ffffffffffffffffffffffffffffffffffffffff166370a08231306040518263ffffffff1660e01b8152600401808273ffffffffffffffffffffffffffffffffffffffff1673ffffffffffffffffffffffffffffffffffffffff16815260200191505060206040518083038186803b1580156116cf57600080fd5b505afa1580156116e3573d6000803e3d6000fd5b505050506040513d60208110156116f957600080fd5b81019080805190602001909291905050501161171457600080fd5b67016345785d8a0000341015801561173557506802b5e3af16b18800003411155b61173e57600080fd5b600080600690506000600b90506000600590506000600990506000600490506201518061177660045442610e4690919063ffffffff16565b1161183e5761178f600634610e6690919063ffffffff16565b95506117f66117a8600a87610e6690919063ffffffff16565b600660003373ffffffffffffffffffffffffffffffffffffffff1673ffffffffffffffffffffffffffffffffffffffff16815260200190815260200160002054610ea090919063ffffffff16565b600660003373ffffffffffffffffffffffffffffffffffffffff1673ffffffffffffffffffffffffffffffffffffffff16815260200190815260200160002081905550611c7b565b6201518061185760045442610e4690919063ffffffff16565b11801561187b57506202a30061187860045442610e4690919063ffffffff16565b11155b15611969576118a76002611899600b34610e6690919063ffffffff16565b610ebf90919063ffffffff16565b95506119216118d360026118c5600a88610e6690919063ffffffff16565b610ebf90919063ffffffff16565b600660003373ffffffffffffffffffffffffffffffffffffffff1673ffffffffffffffffffffffffffffffffffffffff16815260200190815260200160002054610ea090919063ffffffff16565b600660003373ffffffffffffffffffffffffffffffffffffffff1673ffffffffffffffffffffffffffffffffffffffff16815260200190815260200160002081905550611c7a565b6202a30061198260045442610e4690919063ffffffff16565b1180156119a657506203f4806119a360045442610e4690919063ffffffff16565b11155b15611a6e576119bf600534610e6690919063ffffffff16565b9550611a266119d8600a85610e6690919063ffffffff16565b600660003373ffffffffffffffffffffffffffffffffffffffff1673ffffffffffffffffffffffffffffffffffffffff16815260200190815260200160002054610ea090919063ffffffff16565b600660003373ffffffffffffffffffffffffffffffffffffffff1673ffffffffffffffffffffffffffffffffffffffff16815260200190815260200160002081905550611c79565b6203f480611a8760045442610e4690919063ffffffff16565b118015611aab575062054600611aa860045442610e4690919063ffffffff16565b11155b15611b9957611ad76002611ac9600934610e6690919063ffffffff16565b610ebf90919063ffffffff16565b9550611b51611b036002611af5600a86610e6690919063ffffffff16565b610ebf90919063ffffffff16565b600660003373ffffffffffffffffffffffffffffffffffffffff1673ffffffffffffffffffffffffffffffffffffffff16815260200190815260200160002054610ea090919063ffffffff16565b600660003373ffffffffffffffffffffffffffffffffffffffff1673ffffffffffffffffffffffffffffffffffffffff16815260200190815260200160002081905550611c78565b62054600611bb260045442610e4690919063ffffffff16565b1115611c7757611bcc600434610e6690919063ffffffff16565b9550611c33611be5600a83610e6690919063ffffffff16565b600660003373ffffffffffffffffffffffffffffffffffffffff1673ffffffffffffffffffffffffffffffffffffffff16815260200190815260200160002054610ea090919063ffffffff16565b600660003373ffffffffffffffffffffffffffffffffffffffff1673ffffffffffffffffffffffffffffffffffffffff168152602001908152602001600020819055505b5b5b5b5b6001809054906101000a900473ffffffffffffffffffffffffffffffffffffffff1673ffffffffffffffffffffffffffffffffffffffff166370a08231306040518263ffffffff1660e01b8152600401808273ffffffffffffffffffffffffffffffffffffffff1673ffffffffffffffffffffffffffffffffffffffff16815260200191505060206040518083038186803b158015611d1957600080fd5b505afa158015611d2d573d6000803e3d6000fd5b505050506040513d6020811015611d4357600080fd5b8101908080519060200190929190505050861115611d6057600080fd5b611d7586600054610ea090919063ffffffff16565b600081905550611d9034600354610ea090919063ffffffff16565b6003819055506001809054906101000a900473ffffffffffffffffffffffffffffffffffffffff1673ffffffffffffffffffffffffffffffffffffffff1663a9059cbb33886040518363ffffffff1660e01b8152600401808373ffffffffffffffffffffffffffffffffffffffff1673ffffffffffffffffffffffffffffffffffffffff16815260200182815260200192505050602060405180830381600087803b158015611e3e57600080fd5b505af1158015611e52573d6000803e3d6000fd5b505050506040513d6020811015611e6857600080fd5b810190808051906020019092919050505050611ecc86600560003373ffffffffffffffffffffffffffffffffffffffff1673ffffffffffffffffffffffffffffffffffffffff16815260200190815260200160002054610ea090919063ffffffff16565b600560003373ffffffffffffffffffffffffffffffffffffffff1673ffffffffffffffffffffffffffffffffffffffff16815260200190815260200160002081905550611f626001600760003373ffffffffffffffffffffffffffffffffffffffff1673ffffffffffffffffffffffffffffffffffffffff16815260200190815260200160002054610ea090919063ffffffff16565b600760003373ffffffffffffffffffffffffffffffffffffffff1673ffffffffffffffffffffffffffffffffffffffff16815260200190815260200160002081905550600160009054906101000a900460ff16158015611fcd5750680d8d726b7177a8000060035410155b15611fed5760018060006101000a81548160ff0219169083151502179055505b505050505050565b600160009054906101000a900460ff1681565b6000600760008373ffffffffffffffffffffffffffffffffffffffff1673ffffffffffffffffffffffffffffffffffffffff168152602001908152602001600020549050919050565b60035481565b600260009054906101000a900473ffffffffffffffffffffffffffffffffffffffff1673ffffffffffffffffffffffffffffffffffffffff163373ffffffffffffffffffffffffffffffffffffffff161480156120b45750600047115b80156120d3575060011515600160009054906101000a900460ff161515145b6120dc57600080fd5b600060035490506000600381905550600260009054906101000a900473ffffffffffffffffffffffffffffffffffffffff1673ffffffffffffffffffffffffffffffffffffffff166108fc829081150290604051600060405180830381858888f19350505050158015612153573d6000803e3d6000fd5b505056fea2646970667358221220895cf6b5c186c5834b11e3231803e49225d221c45727f5e64a23c4f2c281fbe164736f6c63430006000033",
  "source": "pragma solidity 0.6.0;\n\nlibrary SafeMath {\n  /**\n  * @dev Multiplies two unsigned integers, reverts on overflow.\n  */\n  function mul(uint256 a, uint256 b) internal pure returns (uint256) {\n    // Gas optimization: this is cheaper than requiring 'a' not being zero, but the\n    // benefit is lost if 'b' is also tested.\n    // See: https://github.com/OpenZeppelin/openzeppelin-solidity/pull/522\n    if (a == 0) {\n        return 0;\n    }\n\n    uint256 c = a * b;\n    require(c / a == b);\n\n    return c;\n  }\n\n  /**\n  * @dev Integer division of two unsigned integers truncating the quotient, reverts on division by zero.\n  */\n  function div(uint256 a, uint256 b) internal pure returns (uint256) {\n    // Solidity only automatically asserts when dividing by 0\n    require(b > 0);\n    uint256 c = a / b;\n    // assert(a == b * c + a % b); // There is no case in which this doesn't hold\n\n    return c;\n  }\n\n  /**\n  * @dev Subtracts two unsigned integers, reverts on overflow (i.e. if subtrahend is greater than minuend).\n  */\n  function sub(uint256 a, uint256 b) internal pure returns (uint256) {\n    require(b <= a);\n    uint256 c = a - b;\n\n    return c;\n  }\n\n  /**\n  * @dev Adds two unsigned integers, reverts on overflow.\n  */\n  function add(uint256 a, uint256 b) internal pure returns (uint256) {\n    uint256 c = a + b;\n    require(c >= a);\n\n    return c;\n  }\n\n  /**\n  * @dev Divides two unsigned integers and returns the remainder (unsigned integer modulo),\n  * reverts when dividing by zero.\n  */\n  function mod(uint256 a, uint256 b) internal pure returns (uint256) {\n    require(b != 0);\n    return a % b;\n  }\n}\n\ninterface ERC20 {\n  function balanceOf(address who) external view returns (uint256);\n  function allowance(address owner, address spender) external  view returns (uint256);\n  function transfer(address to, uint value) external  returns (bool success);\n  function transferFrom(address from, address to, uint256 value) external returns (bool success);\n  function approve(address spender, uint value) external returns (bool success);\n}\n\ncontract YFMSTokenSale {\n  using SafeMath for uint256;\n\n  uint256 public totalSold;\n  bool public softCapMet;\n  ERC20 public YFMSToken;\n  address payable public owner;\n  uint256 public collectedETH;\n  uint256 public startDate;\n\n  // tracks all contributors.\n  mapping(address => uint256) internal _contributions;\n  // adjusts for different conversion rates.\n  mapping(address => uint256) internal _averagePurchaseRate;\n  // total contributions from wallet.\n  mapping(address => uint256) internal _numberOfContributions;\n\n  constructor(address _wallet) public {\n    owner = msg.sender;\n    YFMSToken = ERC20(_wallet);\n  }\n\n  // Enables users to buy back their ETH after day 7 if soft\n  // cap isn't met.\n\n \n  // Converts ETH to YFMS and sends new YFMS to the sender\n  receive () external payable {\n    require(startDate > 0 && now.sub(startDate) <= 7 days);\n    require(YFMSToken.balanceOf(address(this)) > 0);\n    require(msg.value >= 0.1 ether && msg.value <= 50 ether);\n     \n    uint256 amount;\n    uint256 rateDay1 = 6;\n    uint256 rateDay2 = 11;\n    uint256 rateDay3 = 5;\n    uint256 rateDay4 = 9;\n    uint256 rateDay5 = 4;\n\n    if (now.sub(startDate) <= 1 days) {\n       amount = msg.value.mul(6);\n       _averagePurchaseRate[msg.sender] = _averagePurchaseRate[msg.sender].add(rateDay1.mul(10));\n    } else if(now.sub(startDate) > 1 days && now.sub(startDate) <= 2 days) {\n       amount = msg.value.mul(11).div(2);\n       _averagePurchaseRate[msg.sender] = _averagePurchaseRate[msg.sender].add(rateDay2.mul(10).div(2));\n    } else if(now.sub(startDate) > 2 days && now.sub(startDate) <= 3 days) {\n       amount = msg.value.mul(5);\n       _averagePurchaseRate[msg.sender] = _averagePurchaseRate[msg.sender].add(rateDay3.mul(10));\n    } else if(now.sub(startDate) > 3 days && now.sub(startDate) <= 4 days) {\n       amount = msg.value.mul(9).div(2);\n       _averagePurchaseRate[msg.sender] = _averagePurchaseRate[msg.sender].add(rateDay4.mul(10).div(2));\n    } else if(now.sub(startDate) > 4 days) {\n       amount = msg.value.mul(4);\n       _averagePurchaseRate[msg.sender] = _averagePurchaseRate[msg.sender].add(rateDay5.mul(10));\n    }\n    \n    require(amount <= YFMSToken.balanceOf(address(this)));\n    // update constants.\n    totalSold = totalSold.add(amount);\n    collectedETH = collectedETH.add(msg.value);\n    // transfer the tokens.\n    YFMSToken.transfer(msg.sender, amount);\n    // update address contribution + total contributions.\n    _contributions[msg.sender] = _contributions[msg.sender].add(amount);\n    _numberOfContributions[msg.sender] = _numberOfContributions[msg.sender].add(1);\n    // check if soft cap is met.\n    if (!softCapMet && collectedETH >= 250 ether) {\n      softCapMet = true;\n    }\n  }\n\n  // Converts ETH to YFMS and sends new YFMS to the sender\n  function contribute() external payable {\n    require(startDate > 0 && now.sub(startDate) <= 7 days);\n    require(YFMSToken.balanceOf(address(this)) > 0);\n    require(msg.value >= 0.1 ether && msg.value <= 50 ether);\n     \n    uint256 amount;\n    uint256 rateDay1 = 6;\n    uint256 rateDay2 = 11;\n    uint256 rateDay3 = 5;\n    uint256 rateDay4 = 9;\n    uint256 rateDay5 = 4;\n\n    if (now.sub(startDate) <= 1 days) {\n       amount = msg.value.mul(6);\n       _averagePurchaseRate[msg.sender] = _averagePurchaseRate[msg.sender].add(rateDay1.mul(10));\n    } else if(now.sub(startDate) > 1 days && now.sub(startDate) <= 2 days) {\n       amount = msg.value.mul(11).div(2);\n       _averagePurchaseRate[msg.sender] = _averagePurchaseRate[msg.sender].add(rateDay2.mul(10).div(2));\n    } else if(now.sub(startDate) > 2 days && now.sub(startDate) <= 3 days) {\n       amount = msg.value.mul(5);\n       _averagePurchaseRate[msg.sender] = _averagePurchaseRate[msg.sender].add(rateDay3.mul(10));\n    } else if(now.sub(startDate) > 3 days && now.sub(startDate) <= 4 days) {\n       amount = msg.value.mul(9).div(2);\n       _averagePurchaseRate[msg.sender] = _averagePurchaseRate[msg.sender].add(rateDay4.mul(10).div(2));\n    } else if(now.sub(startDate) > 4 days) {\n       amount = msg.value.mul(4);\n       _averagePurchaseRate[msg.sender] = _averagePurchaseRate[msg.sender].add(rateDay5.mul(10));\n    }\n        \n    require(amount <= YFMSToken.balanceOf(address(this)));\n    // update constants.\n    totalSold = totalSold.add(amount);\n    collectedETH = collectedETH.add(msg.value);\n    // transfer the tokens.\n    YFMSToken.transfer(msg.sender, amount);\n    // update address contribution + total contributions.\n    _contributions[msg.sender] = _contributions[msg.sender].add(amount);\n    _numberOfContributions[msg.sender] = _numberOfContributions[msg.sender].add(1);\n    // check if soft cap is met.\n    if (!softCapMet && collectedETH >= 250 ether) {\n      softCapMet = true;\n    }\n  }\n\n  function numberOfContributions(address from) public view returns(uint256) {\n    return _numberOfContributions[address(from)]; \n  }\n\n  function contributions(address from) public view returns(uint256) {\n    return _contributions[address(from)];\n  }\n\n  function averagePurchaseRate(address from) public view returns(uint256) {\n    return _averagePurchaseRate[address(from)];\n  }\n\n  // if the soft cap isn't met and the presale period ends (7 days) enable\n  // users to buy back their ether.\n  function buyBackETH(address payable from) public {\n    require(now.sub(startDate) > 7 days && !softCapMet);\n    require(_contributions[from] > 0);\n    uint256 exchangeRate = _averagePurchaseRate[from].div(10);\n    from.transfer(_contributions[from].div(exchangeRate));\n    // remove funds from users contributions.\n    _contributions[from] = 0;\n  }\n\n  // Function to withdraw raised ETH (minimum 250)\n  // Only the contract owner can call this function\n  function withdrawETH() public {\n    require(msg.sender == owner && address(this).balance > 0 && softCapMet == true);\n    uint256 amount = collectedETH;\n    collectedETH = 0;\n    owner.transfer(amount);\n  }\n  \n  // Function to withdraw available YFMS\n  // Only the contract owner can call this function\n  function withdrawYFMS() public {\n     require(msg.sender == owner && YFMSToken.balanceOf(address(this)) > 0);\n     YFMSToken.transfer(owner, YFMSToken.balanceOf(address(this)));\n  }\n  \n  //Starts the sale\n  //Only the contract owner can call this function\n  function startSale() public {\n    require(msg.sender == owner && startDate==0);\n    startDate=now;\n  }\n  \n  //Function to query the supply of YFMS in the contract\n  function availableYFMS() public view returns(uint256) {\n    return YFMSToken.balanceOf(address(this));\n  }\n}\n",
  "sourcePath": "/home/spyder/Programming/Projects/YFMOONSHOT-TOKEN-CONTRACT/contracts/YFMSTokenSale.sol",
  "compiler": {
    "name": "solc",
    "version": "0.6.0+commit.26b70077.Emscripten.clang"
  },
  "schemaVersion": "3.2.3",
  "updatedAt": "2020-09-13T22:42:30.110Z",
  "networkType": "ethereum",
  "devdoc": {
    "methods": {}
  },
  "userdoc": {
    "methods": {}
  }
}