{
  "contractName": "YFMSTokenSale",
  "abi": [
    {
      "inputs": [
        {
          "internalType": "address",
          "name": "_wallet",
          "type": "address"
        }
      ],
      "stateMutability": "nonpayable",
      "type": "constructor"
    },
    {
      "inputs": [],
      "name": "YFMSToken",
      "outputs": [
        {
          "internalType": "contract ERC20",
          "name": "",
          "type": "address"
        }
      ],
      "stateMutability": "view",
      "type": "function",
      "constant": true
    },
    {
      "inputs": [],
      "name": "collectedETH",
      "outputs": [
        {
          "internalType": "uint256",
          "name": "",
          "type": "uint256"
        }
      ],
      "stateMutability": "view",
      "type": "function",
      "constant": true
    },
    {
      "inputs": [],
      "name": "owner",
      "outputs": [
        {
          "internalType": "address payable",
          "name": "",
          "type": "address"
        }
      ],
      "stateMutability": "view",
      "type": "function",
      "constant": true
    },
    {
      "inputs": [],
      "name": "startDate",
      "outputs": [
        {
          "internalType": "uint256",
          "name": "",
          "type": "uint256"
        }
      ],
      "stateMutability": "view",
      "type": "function",
      "constant": true
    },
    {
      "inputs": [],
      "name": "totalSold",
      "outputs": [
        {
          "internalType": "uint256",
          "name": "",
          "type": "uint256"
        }
      ],
      "stateMutability": "view",
      "type": "function",
      "constant": true
    },
    {
      "stateMutability": "payable",
      "type": "receive",
      "payable": true
    },
    {
      "inputs": [],
      "name": "contribute",
      "outputs": [],
      "stateMutability": "payable",
      "type": "function",
      "payable": true
    },
    {
      "inputs": [],
      "name": "withdrawETH",
      "outputs": [],
      "stateMutability": "nonpayable",
      "type": "function"
    },
    {
      "inputs": [],
      "name": "withdrawYFMS",
      "outputs": [],
      "stateMutability": "nonpayable",
      "type": "function"
    },
    {
      "inputs": [],
      "name": "startSale",
      "outputs": [],
      "stateMutability": "nonpayable",
      "type": "function"
    },
    {
      "inputs": [],
      "name": "availableYFMS",
      "outputs": [
        {
          "internalType": "uint256",
          "name": "",
          "type": "uint256"
        }
      ],
      "stateMutability": "view",
      "type": "function",
      "constant": true
    }
  ],
  "bytecode": "0x608060405234801561001057600080fd5b506040516113313803806113318339818101604052602081101561003357600080fd5b810190808051906020019092919050505033600260006101000a81548173ffffffffffffffffffffffffffffffffffffffff021916908373ffffffffffffffffffffffffffffffffffffffff16021790555080600160006101000a81548173ffffffffffffffffffffffffffffffffffffffff021916908373ffffffffffffffffffffffffffffffffffffffff1602179055505061125b806100d66000396000f3fe6080604052600436106100955760003560e01c8063b66a0e5d11610059578063b66a0e5d1461068c578063b6ce7531146106a3578063d7bb99ba146106ce578063dfccdef5146106d8578063e086e5ec146107035761056c565b8063021e63c1146105715780630b97bc86146105c8578063756e5db7146105f35780638da5cb5b1461060a5780639106d7ba146106615761056c565b3661056c5760006004541180156100c3575062093a806100c06004544261071a90919063ffffffff16565b11155b6100cc57600080fd5b6000600160009054906101000a900473ffffffffffffffffffffffffffffffffffffffff1673ffffffffffffffffffffffffffffffffffffffff166370a08231306040518263ffffffff1660e01b8152600401808273ffffffffffffffffffffffffffffffffffffffff1673ffffffffffffffffffffffffffffffffffffffff16815260200191505060206040518083038186803b15801561016d57600080fd5b505afa158015610181573d6000803e3d6000fd5b505050506040513d602081101561019757600080fd5b8101908080519060200190929190505050116101b257600080fd5b670de0b6b3a764000034101580156101d357506802b5e3af16b18800003411155b6101dc57600080fd5b6000620151806101f76004544261071a90919063ffffffff16565b116102175761021060083461073a90919063ffffffff16565b9050610368565b620151806102306004544261071a90919063ffffffff16565b11801561025457506202a3006102516004544261071a90919063ffffffff16565b11155b156102745761026d60073461073a90919063ffffffff16565b9050610367565b6202a30061028d6004544261071a90919063ffffffff16565b1180156102b157506203f4806102ae6004544261071a90919063ffffffff16565b11155b156102d1576102ca60063461073a90919063ffffffff16565b9050610366565b6203f4806102ea6004544261071a90919063ffffffff16565b11801561030e57506205460061030b6004544261071a90919063ffffffff16565b11155b1561032e5761032760053461073a90919063ffffffff16565b9050610365565b620546006103476004544261071a90919063ffffffff16565b11156103645761036160043461073a90919063ffffffff16565b90505b5b5b5b5b600160009054906101000a900473ffffffffffffffffffffffffffffffffffffffff1673ffffffffffffffffffffffffffffffffffffffff166370a08231306040518263ffffffff1660e01b8152600401808273ffffffffffffffffffffffffffffffffffffffff1673ffffffffffffffffffffffffffffffffffffffff16815260200191505060206040518083038186803b15801561040757600080fd5b505afa15801561041b573d6000803e3d6000fd5b505050506040513d602081101561043157600080fd5b810190808051906020019092919050505081111561044e57600080fd5b6104638160005461077490919063ffffffff16565b60008190555061047e3460035461077490919063ffffffff16565b600381905550600160009054906101000a900473ffffffffffffffffffffffffffffffffffffffff1673ffffffffffffffffffffffffffffffffffffffff1663a9059cbb33836040518363ffffffff1660e01b8152600401808373ffffffffffffffffffffffffffffffffffffffff1673ffffffffffffffffffffffffffffffffffffffff16815260200182815260200192505050602060405180830381600087803b15801561052d57600080fd5b505af1158015610541573d6000803e3d6000fd5b505050506040513d602081101561055757600080fd5b81019080805190602001909291905050505050005b600080fd5b34801561057d57600080fd5b50610586610793565b604051808273ffffffffffffffffffffffffffffffffffffffff1673ffffffffffffffffffffffffffffffffffffffff16815260200191505060405180910390f35b3480156105d457600080fd5b506105dd6107b9565b6040518082815260200191505060405180910390f35b3480156105ff57600080fd5b506106086107bf565b005b34801561061657600080fd5b5061061f610ae0565b604051808273ffffffffffffffffffffffffffffffffffffffff1673ffffffffffffffffffffffffffffffffffffffff16815260200191505060405180910390f35b34801561066d57600080fd5b50610676610b06565b6040518082815260200191505060405180910390f35b34801561069857600080fd5b506106a1610b0c565b005b3480156106af57600080fd5b506106b8610b7d565b6040518082815260200191505060405180910390f35b6106d6610c5e565b005b3480156106e457600080fd5b506106ed611130565b6040518082815260200191505060405180910390f35b34801561070f57600080fd5b50610718611136565b005b60008282111561072957600080fd5b600082840390508091505092915050565b60008083141561074d576000905061076e565b600082840290508284828161075e57fe5b041461076957600080fd5b809150505b92915050565b60008082840190508381101561078957600080fd5b8091505092915050565b600160009054906101000a900473ffffffffffffffffffffffffffffffffffffffff1681565b60045481565b600260009054906101000a900473ffffffffffffffffffffffffffffffffffffffff1673ffffffffffffffffffffffffffffffffffffffff163373ffffffffffffffffffffffffffffffffffffffff161480156108f557506000600160009054906101000a900473ffffffffffffffffffffffffffffffffffffffff1673ffffffffffffffffffffffffffffffffffffffff166370a08231306040518263ffffffff1660e01b8152600401808273ffffffffffffffffffffffffffffffffffffffff1673ffffffffffffffffffffffffffffffffffffffff16815260200191505060206040518083038186803b1580156108b857600080fd5b505afa1580156108cc573d6000803e3d6000fd5b505050506040513d60208110156108e257600080fd5b8101908080519060200190929190505050115b6108fe57600080fd5b600160009054906101000a900473ffffffffffffffffffffffffffffffffffffffff1673ffffffffffffffffffffffffffffffffffffffff1663a9059cbb600260009054906101000a900473ffffffffffffffffffffffffffffffffffffffff16600160009054906101000a900473ffffffffffffffffffffffffffffffffffffffff1673ffffffffffffffffffffffffffffffffffffffff166370a08231306040518263ffffffff1660e01b8152600401808273ffffffffffffffffffffffffffffffffffffffff1673ffffffffffffffffffffffffffffffffffffffff16815260200191505060206040518083038186803b1580156109fe57600080fd5b505afa158015610a12573d6000803e3d6000fd5b505050506040513d6020811015610a2857600080fd5b81019080805190602001909291905050506040518363ffffffff1660e01b8152600401808373ffffffffffffffffffffffffffffffffffffffff1673ffffffffffffffffffffffffffffffffffffffff16815260200182815260200192505050602060405180830381600087803b158015610aa257600080fd5b505af1158015610ab6573d6000803e3d6000fd5b505050506040513d6020811015610acc57600080fd5b810190808051906020019092919050505050565b600260009054906101000a900473ffffffffffffffffffffffffffffffffffffffff1681565b60005481565b600260009054906101000a900473ffffffffffffffffffffffffffffffffffffffff1673ffffffffffffffffffffffffffffffffffffffff163373ffffffffffffffffffffffffffffffffffffffff16148015610b6b57506000600454145b610b7457600080fd5b42600481905550565b6000600160009054906101000a900473ffffffffffffffffffffffffffffffffffffffff1673ffffffffffffffffffffffffffffffffffffffff166370a08231306040518263ffffffff1660e01b8152600401808273ffffffffffffffffffffffffffffffffffffffff1673ffffffffffffffffffffffffffffffffffffffff16815260200191505060206040518083038186803b158015610c1e57600080fd5b505afa158015610c32573d6000803e3d6000fd5b505050506040513d6020811015610c4857600080fd5b8101908080519060200190929190505050905090565b6000600454118015610c87575062093a80610c846004544261071a90919063ffffffff16565b11155b610c9057600080fd5b6000600160009054906101000a900473ffffffffffffffffffffffffffffffffffffffff1673ffffffffffffffffffffffffffffffffffffffff166370a08231306040518263ffffffff1660e01b8152600401808273ffffffffffffffffffffffffffffffffffffffff1673ffffffffffffffffffffffffffffffffffffffff16815260200191505060206040518083038186803b158015610d3157600080fd5b505afa158015610d45573d6000803e3d6000fd5b505050506040513d6020811015610d5b57600080fd5b810190808051906020019092919050505011610d7657600080fd5b67016345785d8a00003410158015610d9757506802b5e3af16b18800003411155b610da057600080fd5b600062015180610dbb6004544261071a90919063ffffffff16565b11610ddb57610dd460083461073a90919063ffffffff16565b9050610f2c565b62015180610df46004544261071a90919063ffffffff16565b118015610e1857506202a300610e156004544261071a90919063ffffffff16565b11155b15610e3857610e3160073461073a90919063ffffffff16565b9050610f2b565b6202a300610e516004544261071a90919063ffffffff16565b118015610e7557506203f480610e726004544261071a90919063ffffffff16565b11155b15610e9557610e8e60063461073a90919063ffffffff16565b9050610f2a565b6203f480610eae6004544261071a90919063ffffffff16565b118015610ed2575062054600610ecf6004544261071a90919063ffffffff16565b11155b15610ef257610eeb60053461073a90919063ffffffff16565b9050610f29565b62054600610f0b6004544261071a90919063ffffffff16565b1115610f2857610f2560043461073a90919063ffffffff16565b90505b5b5b5b5b600160009054906101000a900473ffffffffffffffffffffffffffffffffffffffff1673ffffffffffffffffffffffffffffffffffffffff166370a08231306040518263ffffffff1660e01b8152600401808273ffffffffffffffffffffffffffffffffffffffff1673ffffffffffffffffffffffffffffffffffffffff16815260200191505060206040518083038186803b158015610fcb57600080fd5b505afa158015610fdf573d6000803e3d6000fd5b505050506040513d6020811015610ff557600080fd5b810190808051906020019092919050505081111561101257600080fd5b6110278160005461077490919063ffffffff16565b6000819055506110423460035461077490919063ffffffff16565b600381905550600160009054906101000a900473ffffffffffffffffffffffffffffffffffffffff1673ffffffffffffffffffffffffffffffffffffffff1663a9059cbb33836040518363ffffffff1660e01b8152600401808373ffffffffffffffffffffffffffffffffffffffff1673ffffffffffffffffffffffffffffffffffffffff16815260200182815260200192505050602060405180830381600087803b1580156110f157600080fd5b505af1158015611105573d6000803e3d6000fd5b505050506040513d602081101561111b57600080fd5b81019080805190602001909291905050505050565b60035481565b600260009054906101000a900473ffffffffffffffffffffffffffffffffffffffff1673ffffffffffffffffffffffffffffffffffffffff163373ffffffffffffffffffffffffffffffffffffffff161480156111935750600047115b80156111a157506000600354115b6111aa57600080fd5b600060035490506000600381905550600260009054906101000a900473ffffffffffffffffffffffffffffffffffffffff1673ffffffffffffffffffffffffffffffffffffffff166108fc829081150290604051600060405180830381858888f19350505050158015611221573d6000803e3d6000fd5b505056fea2646970667358221220b2774b1e74ac0d75b503c7b268cee4bc7a492cb384134210b08f03c6aebeb9ff64736f6c63430006000033",
  "source": "pragma solidity 0.6.0;\n\nlibrary SafeMath {\n  /**\n  * @dev Multiplies two unsigned integers, reverts on overflow.\n  */\n  function mul(uint256 a, uint256 b) internal pure returns (uint256) {\n    // Gas optimization: this is cheaper than requiring 'a' not being zero, but the\n    // benefit is lost if 'b' is also tested.\n    // See: https://github.com/OpenZeppelin/openzeppelin-solidity/pull/522\n    if (a == 0) {\n        return 0;\n    }\n\n    uint256 c = a * b;\n    require(c / a == b);\n\n    return c;\n  }\n\n  /**\n  * @dev Integer division of two unsigned integers truncating the quotient, reverts on division by zero.\n  */\n  function div(uint256 a, uint256 b) internal pure returns (uint256) {\n    // Solidity only automatically asserts when dividing by 0\n    require(b > 0);\n    uint256 c = a / b;\n    // assert(a == b * c + a % b); // There is no case in which this doesn't hold\n\n    return c;\n  }\n\n  /**\n  * @dev Subtracts two unsigned integers, reverts on overflow (i.e. if subtrahend is greater than minuend).\n  */\n  function sub(uint256 a, uint256 b) internal pure returns (uint256) {\n    require(b <= a);\n    uint256 c = a - b;\n\n    return c;\n  }\n\n  /**\n  * @dev Adds two unsigned integers, reverts on overflow.\n  */\n  function add(uint256 a, uint256 b) internal pure returns (uint256) {\n    uint256 c = a + b;\n    require(c >= a);\n\n    return c;\n  }\n\n  /**\n  * @dev Divides two unsigned integers and returns the remainder (unsigned integer modulo),\n  * reverts when dividing by zero.\n  */\n  function mod(uint256 a, uint256 b) internal pure returns (uint256) {\n    require(b != 0);\n    return a % b;\n  }\n}\n\ninterface ERC20 {\n  function balanceOf(address who) external view returns (uint256);\n  function allowance(address owner, address spender) external  view returns (uint256);\n  function transfer(address to, uint value) external  returns (bool success);\n  function transferFrom(address from, address to, uint256 value) external returns (bool success);\n  function approve(address spender, uint value) external returns (bool success);\n}\n\ncontract YFMSTokenSale {\n  using SafeMath for uint256;\n  \n  uint256 public totalSold;\n  ERC20 public YFMSToken;\n  address payable public owner;\n\n  uint256 public collectedETH;\n  uint256 public startDate;\n\n  constructor(address _wallet) public {\n    owner = msg.sender;\n    YFMSToken = ERC20(_wallet);\n  }\n \n  // Converts ETH to YFMS and sends new YFMS to the sender\n  receive () external payable {\n    require(startDate > 0 && now.sub(startDate) <= 7 days);\n    require(YFMSToken.balanceOf(address(this)) > 0);\n    require(msg.value >= 1 ether && msg.value <= 50 ether);\n     \n    uint256 amount;\n        \n    if (now.sub(startDate) <= 1 days) {\n       amount = msg.value.mul(8);\n    } else if(now.sub(startDate) > 1 days && now.sub(startDate) <= 2 days) {\n       amount = msg.value.mul(7);\n    } else if(now.sub(startDate) > 2 days && now.sub(startDate) <= 3 days) {\n       amount = msg.value.mul(6);\n    } else if(now.sub(startDate) > 3 days && now.sub(startDate) <= 4 days) {\n       amount = msg.value.mul(5);\n    } else if(now.sub(startDate) > 4 days) {\n       amount = msg.value.mul(4);\n    }\n    \n    require(amount <= YFMSToken.balanceOf(address(this)));\n    totalSold = totalSold.add(amount);\n    collectedETH = collectedETH.add(msg.value);\n    YFMSToken.transfer(msg.sender, amount);\n  }\n\n  // Converts ETH to YFMS and sends new YFMS to the sender\n  function contribute() external payable {\n    require(startDate > 0 && now.sub(startDate) <= 7 days);\n    require(YFMSToken.balanceOf(address(this)) > 0);\n    require(msg.value >= 0.1 ether && msg.value <= 50 ether);\n      \n    uint256 amount;\n    \n    if(now.sub(startDate) <= 1 days) {\n      amount = msg.value.mul(8);\n    } else if(now.sub(startDate) > 1 days && now.sub(startDate) <= 2 days) {\n      amount = msg.value.mul(7);\n    } else if(now.sub(startDate) > 2 days && now.sub(startDate) <= 3 days) {\n      amount = msg.value.mul(6);\n    } else if(now.sub(startDate) > 3 days && now.sub(startDate) <= 4 days) {\n      amount = msg.value.mul(5);\n    } else if(now.sub(startDate) > 4 days) {\n      amount = msg.value.mul(4);\n    }\n \n    require(amount <= YFMSToken.balanceOf(address(this)));\n    totalSold = totalSold.add(amount);\n    collectedETH = collectedETH.add(msg.value);\n    YFMSToken.transfer(msg.sender, amount);\n  }\n\n  // Function to withdraw raised ETH\n  // Only the contract owner can call this function\n  function withdrawETH() public {\n    require(msg.sender == owner && address(this).balance > 0 && collectedETH > 0);\n    uint256 amount = collectedETH;\n    collectedETH = 0;\n    owner.transfer(amount);\n  }\n  \n  // Function to withdraw available YFMS\n  // Only the contract owner can call this function\n  function withdrawYFMS() public {\n     require(msg.sender == owner && YFMSToken.balanceOf(address(this)) > 0);\n     YFMSToken.transfer(owner, YFMSToken.balanceOf(address(this)));\n  }\n  \n  //Starts the sale\n  //Only the contract owner can call this function\n  function startSale() public {\n    require(msg.sender == owner && startDate==0);\n    startDate=now;\n  }\n  \n  //Function to query the supply of YFMS in the contract\n  function availableYFMS() public view returns(uint256){\n    return YFMSToken.balanceOf(address(this));\n  }\n}\n",
  "sourcePath": "/home/spyder/Programming/Projects/YFMOONSHOT-TOKEN-CONTRACT/contracts/YFMSTokenSale.sol",
  "compiler": {
    "name": "solc",
    "version": "0.6.0+commit.26b70077.Emscripten.clang"
  },
  "schemaVersion": "3.2.3",
  "updatedAt": "2020-09-12T16:21:55.053Z",
  "networkType": "ethereum",
  "devdoc": {
    "methods": {}
  },
  "userdoc": {
    "methods": {}
  }
}